{
  "_format": "hh-sol-artifact-1",
  "contractName": "MunchPortal",
  "sourceName": "contracts/MunchPortal.sol",
  "abi": [
    {
      "inputs": [],
      "stateMutability": "payable",
      "type": "constructor"
    },
    {
      "anonymous": false,
      "inputs": [
        {
          "indexed": true,
          "internalType": "address",
          "name": "from",
          "type": "address"
        },
        {
          "indexed": false,
          "internalType": "uint256",
          "name": "timestamp",
          "type": "uint256"
        },
        {
          "indexed": false,
          "internalType": "string",
          "name": "what",
          "type": "string"
        },
        {
          "indexed": false,
          "internalType": "string",
          "name": "where",
          "type": "string"
        },
        {
          "indexed": false,
          "internalType": "string",
          "name": "why",
          "type": "string"
        }
      ],
      "name": "NewMunch",
      "type": "event"
    },
    {
      "inputs": [],
      "name": "getAllMeals",
      "outputs": [
        {
          "components": [
            {
              "internalType": "address",
              "name": "muncher",
              "type": "address"
            },
            {
              "internalType": "string",
              "name": "what",
              "type": "string"
            },
            {
              "internalType": "string",
              "name": "where",
              "type": "string"
            },
            {
              "internalType": "string",
              "name": "why",
              "type": "string"
            },
            {
              "internalType": "uint256",
              "name": "timestamp",
              "type": "uint256"
            }
          ],
          "internalType": "struct MunchPortal.Munch[]",
          "name": "",
          "type": "tuple[]"
        }
      ],
      "stateMutability": "view",
      "type": "function"
    },
    {
      "inputs": [],
      "name": "getTotalMeals",
      "outputs": [
        {
          "internalType": "uint256",
          "name": "",
          "type": "uint256"
        }
      ],
      "stateMutability": "view",
      "type": "function"
    },
    {
      "inputs": [
        {
          "internalType": "address",
          "name": "",
          "type": "address"
        }
      ],
      "name": "lastWavedAt",
      "outputs": [
        {
          "internalType": "uint256",
          "name": "",
          "type": "uint256"
        }
      ],
      "stateMutability": "view",
      "type": "function"
    },
    {
      "inputs": [
        {
          "internalType": "string",
          "name": "what",
          "type": "string"
        },
        {
          "internalType": "string",
          "name": "where",
          "type": "string"
        },
        {
          "internalType": "string",
          "name": "why",
          "type": "string"
        }
      ],
      "name": "munch",
      "outputs": [],
      "stateMutability": "nonpayable",
      "type": "function"
    }
  ],
  "bytecode": "0x60806040526200004f6040518060400160405280601881526020017f4d756e63686b696e20736d61727420636f6e74726163742e00000000000000008152506200007760201b620007f81760201c565b606444426200005f9190620001c4565b6200006b919062000261565b60018190555062000308565b62000117816040516024016200008e919062000184565b6040516020818303038152906040527f41304fac000000000000000000000000000000000000000000000000000000007bffffffffffffffffffffffffffffffffffffffffffffffffffffffff19166020820180517bffffffffffffffffffffffffffffffffffffffffffffffffffffffff83818316178352505050506200011a60201b60201c565b50565b60008151905060006a636f6e736f6c652e6c6f679050602083016000808483855afa5050505050565b60006200015082620001a8565b6200015c8185620001b3565b93506200016e8185602086016200022b565b6200017981620002f7565b840191505092915050565b60006020820190508181036000830152620001a0818462000143565b905092915050565b600081519050919050565b600082825260208201905092915050565b6000620001d18262000221565b9150620001de8362000221565b9250827fffffffffffffffffffffffffffffffffffffffffffffffffffffffffffffffff0382111562000216576200021562000299565b5b828201905092915050565b6000819050919050565b60005b838110156200024b5780820151818401526020810190506200022e565b838111156200025b576000848401525b50505050565b60006200026e8262000221565b91506200027b8362000221565b9250826200028e576200028d620002c8565b5b828206905092915050565b7f4e487b7100000000000000000000000000000000000000000000000000000000600052601160045260246000fd5b7f4e487b7100000000000000000000000000000000000000000000000000000000600052601260045260246000fd5b6000601f19601f8301169050919050565b61136480620003186000396000f3fe608060405234801561001057600080fd5b506004361061004c5760003560e01c80632fb3dbb314610051578063a42a46631461006f578063a965d8b81461009f578063b3cb87b2146100bb575b600080fd5b6100596100d9565b6040516100669190610fcc565b60405180910390f35b61008960048036038101906100849190610b12565b610124565b6040516100969190610fcc565b60405180910390f35b6100b960048036038101906100b49190610b3b565b61013c565b005b6100c3610583565b6040516100d09190610ec8565b60405180910390f35b600061011c6040518060400160405280601781526020017f5765206861766520256420746f74616c206d65616c7321000000000000000000815250600054610891565b600054905090565b60036020528060005260406000206000915090505481565b42610384600360003373ffffffffffffffffffffffffffffffffffffffff1673ffffffffffffffffffffffffffffffffffffffff1681526020019081526020016000205461018a9190611113565b106101ca576040517f08c379a00000000000000000000000000000000000000000000000000000000081526004016101c190610fac565b60405180910390fd5b42600360003373ffffffffffffffffffffffffffffffffffffffff1673ffffffffffffffffffffffffffffffffffffffff1681526020019081526020016000208190555060016000808282546102209190611113565b925050819055506102666040518060400160405280600f81526020017f257320686173206d756e636865642100000000000000000000000000000000008152503361092d565b60026040518060a001604052803373ffffffffffffffffffffffffffffffffffffffff16815260200185815260200184815260200183815260200142815250908060018154018082558091505060019003906000526020600020906005020160009091909190915060008201518160000160006101000a81548173ffffffffffffffffffffffffffffffffffffffff021916908373ffffffffffffffffffffffffffffffffffffffff16021790555060208201518160010190805190602001906103319291906109f2565b50604082015181600201908051906020019061034e9291906109f2565b50606082015181600301908051906020019061036b9291906109f2565b50608082015181600401555050606460015442446103899190611113565b6103939190611113565b61039d9190611219565b6001819055506103e46040518060400160405280601681526020017f52616e646f6d20232067656e6572617465643a20256400000000000000000000815250600154610891565b60326001541161052a5761042d6040518060400160405280600781526020017f257320776f6e21000000000000000000000000000000000000000000000000008152503361092d565b6000655af3107a400090504781111561047b576040517f08c379a000000000000000000000000000000000000000000000000000000000815260040161047290610f6c565b60405180910390fd5b60003373ffffffffffffffffffffffffffffffffffffffff16826040516104a190610eb3565b60006040518083038185875af1925050503d80600081146104de576040519150601f19603f3d011682016040523d82523d6000602084013e6104e3565b606091505b5050905080610527576040517f08c379a000000000000000000000000000000000000000000000000000000000815260040161051e90610f8c565b60405180910390fd5b50505b3373ffffffffffffffffffffffffffffffffffffffff167f76aaf27c2aa3bd3b8dfc0d4d4e5558b8e3ad20a07c1770412a672e47787359d3428585856040516105769493929190610fe7565b60405180910390a2505050565b60606002805480602002602001604051908101604052809291908181526020016000905b828210156107ef57838290600052602060002090600502016040518060a00160405290816000820160009054906101000a900473ffffffffffffffffffffffffffffffffffffffff1673ffffffffffffffffffffffffffffffffffffffff1673ffffffffffffffffffffffffffffffffffffffff168152602001600182018054610630906111e7565b80601f016020809104026020016040519081016040528092919081815260200182805461065c906111e7565b80156106a95780601f1061067e576101008083540402835291602001916106a9565b820191906000526020600020905b81548152906001019060200180831161068c57829003601f168201915b505050505081526020016002820180546106c2906111e7565b80601f01602080910402602001604051908101604052809291908181526020018280546106ee906111e7565b801561073b5780601f106107105761010080835404028352916020019161073b565b820191906000526020600020905b81548152906001019060200180831161071e57829003601f168201915b50505050508152602001600382018054610754906111e7565b80601f0160208091040260200160405190810160405280929190818152602001828054610780906111e7565b80156107cd5780601f106107a2576101008083540402835291602001916107cd565b820191906000526020600020905b8154815290600101906020018083116107b057829003601f168201915b50505050508152602001600482015481525050815260200190600101906105a7565b50505050905090565b61088e8160405160240161080c9190610eea565b6040516020818303038152906040527f41304fac000000000000000000000000000000000000000000000000000000007bffffffffffffffffffffffffffffffffffffffffffffffffffffffff19166020820180517bffffffffffffffffffffffffffffffffffffffffffffffffffffffff83818316178352505050506109c9565b50565b61092982826040516024016108a7929190610f3c565b6040516020818303038152906040527f9710a9d0000000000000000000000000000000000000000000000000000000007bffffffffffffffffffffffffffffffffffffffffffffffffffffffff19166020820180517bffffffffffffffffffffffffffffffffffffffffffffffffffffffff83818316178352505050506109c9565b5050565b6109c58282604051602401610943929190610f0c565b6040516020818303038152906040527f319af333000000000000000000000000000000000000000000000000000000007bffffffffffffffffffffffffffffffffffffffffffffffffffffffff19166020820180517bffffffffffffffffffffffffffffffffffffffffffffffffffffffff83818316178352505050506109c9565b5050565b60008151905060006a636f6e736f6c652e6c6f679050602083016000808483855afa5050505050565b8280546109fe906111e7565b90600052602060002090601f016020900481019282610a205760008555610a67565b82601f10610a3957805160ff1916838001178555610a67565b82800160010185558215610a67579182015b82811115610a66578251825591602001919060010190610a4b565b5b509050610a749190610a78565b5090565b5b80821115610a91576000816000905550600101610a79565b5090565b6000610aa8610aa384611072565b611041565b905082815260208101848484011115610ac057600080fd5b610acb8482856111a5565b509392505050565b600081359050610ae281611317565b92915050565b600082601f830112610af957600080fd5b8135610b09848260208601610a95565b91505092915050565b600060208284031215610b2457600080fd5b6000610b3284828501610ad3565b91505092915050565b600080600060608486031215610b5057600080fd5b600084013567ffffffffffffffff811115610b6a57600080fd5b610b7686828701610ae8565b935050602084013567ffffffffffffffff811115610b9357600080fd5b610b9f86828701610ae8565b925050604084013567ffffffffffffffff811115610bbc57600080fd5b610bc886828701610ae8565b9150509250925092565b6000610bde8383610e11565b905092915050565b610bef81611169565b82525050565b610bfe81611169565b82525050565b6000610c0f826110b2565b610c1981856110d5565b935083602082028501610c2b856110a2565b8060005b85811015610c675784840389528151610c488582610bd2565b9450610c53836110c8565b925060208a01995050600181019050610c2f565b50829750879550505050505092915050565b6000610c84826110bd565b610c8e81856110f1565b9350610c9e8185602086016111b4565b610ca781611306565b840191505092915050565b6000610cbd826110bd565b610cc78185611102565b9350610cd78185602086016111b4565b610ce081611306565b840191505092915050565b6000610cf8603483611102565b91507f547279696e6720746f207769746864726177206d6f7265206d6f6e657920746860008301527f616e2074686520636f6e7472616374206861732e0000000000000000000000006020830152604082019050919050565b6000610d5e602783611102565b91507f4661696c656420746f207769746864726177206d6f6e65792066726f6d20636f60008301527f6e74726163742e000000000000000000000000000000000000000000000000006020830152604082019050919050565b6000610dc46000836110e6565b9150600082019050919050565b6000610dde600883611102565b91507f576169742031356d0000000000000000000000000000000000000000000000006000830152602082019050919050565b600060a083016000830151610e296000860182610be6565b5060208301518482036020860152610e418282610c79565b91505060408301518482036040860152610e5b8282610c79565b91505060608301518482036060860152610e758282610c79565b9150506080830151610e8a6080860182610e95565b508091505092915050565b610e9e8161119b565b82525050565b610ead8161119b565b82525050565b6000610ebe82610db7565b9150819050919050565b60006020820190508181036000830152610ee28184610c04565b905092915050565b60006020820190508181036000830152610f048184610cb2565b905092915050565b60006040820190508181036000830152610f268185610cb2565b9050610f356020830184610bf5565b9392505050565b60006040820190508181036000830152610f568185610cb2565b9050610f656020830184610ea4565b9392505050565b60006020820190508181036000830152610f8581610ceb565b9050919050565b60006020820190508181036000830152610fa581610d51565b9050919050565b60006020820190508181036000830152610fc581610dd1565b9050919050565b6000602082019050610fe16000830184610ea4565b92915050565b6000608082019050610ffc6000830187610ea4565b818103602083015261100e8186610cb2565b905081810360408301526110228185610cb2565b905081810360608301526110368184610cb2565b905095945050505050565b6000604051905081810181811067ffffffffffffffff82111715611068576110676112d7565b5b8060405250919050565b600067ffffffffffffffff82111561108d5761108c6112d7565b5b601f19601f8301169050602081019050919050565b6000819050602082019050919050565b600081519050919050565b600081519050919050565b6000602082019050919050565b600082825260208201905092915050565b600081905092915050565b600082825260208201905092915050565b600082825260208201905092915050565b600061111e8261119b565b91506111298361119b565b9250827fffffffffffffffffffffffffffffffffffffffffffffffffffffffffffffffff0382111561115e5761115d61124a565b5b828201905092915050565b60006111748261117b565b9050919050565b600073ffffffffffffffffffffffffffffffffffffffff82169050919050565b6000819050919050565b82818337600083830152505050565b60005b838110156111d25780820151818401526020810190506111b7565b838111156111e1576000848401525b50505050565b600060028204905060018216806111ff57607f821691505b60208210811415611213576112126112a8565b5b50919050565b60006112248261119b565b915061122f8361119b565b92508261123f5761123e611279565b5b828206905092915050565b7f4e487b7100000000000000000000000000000000000000000000000000000000600052601160045260246000fd5b7f4e487b7100000000000000000000000000000000000000000000000000000000600052601260045260246000fd5b7f4e487b7100000000000000000000000000000000000000000000000000000000600052602260045260246000fd5b7f4e487b7100000000000000000000000000000000000000000000000000000000600052604160045260246000fd5b6000601f19601f8301169050919050565b61132081611169565b811461132b57600080fd5b5056fea2646970667358221220fc85616037de2cffcd0178635ef80e7b2fe695e6b8e67c27c180067578b0ca3964736f6c63430008000033",
  "linkReferences": {},
  "deployedLinkReferences": {}
}